:040000008A110D282C
:10000800FE00030EF7000408F8000A08F9008A1534
:10001800802E8A157B2D3A278A117030F3268A1193
:10002800AC30F3268A113330F3268A110030F326D8
:100038008A11452F3A278A117030F3268A11E13048
:10004800F3268A110830F3268A110030F3268A1124
:10005800452F0313BD01BE018A1550258A11031CC3
:10006800F1293E30A0007B08A100C830A2018A1502
:10007800F4248A11DD29413083120317DC0054303F
:10008800DD002B30DE004E30DF004130E0004D3027
:10009800E1004530E2000313BB013B08CB3E84007E
:1000A80083130008AC003B08633E84002C088317C8
:1000B80080000A30BB0A3B02031C51280D3003178D
:1000C800ED000A30EE0005307A140313E0005530D5
:1000D8008316A0003030A1000530A2018312A000D1
:1000E800A03057278A118316A3000A30A400B62728
:1000F8008A11ED298A15AA258A117A15ED298A15FA
:100108002F258A1181288A1511258A118128842290
:100118008A1181288A15AC248A1181288A15DF253D
:100128008A11812883120E30BC01E00055308316F5
:10013800A0003730A1008312BC065F08BE005E082D
:10014800BD003E08A1003D08A0000330A200A301A5
:100158008A238A112008B5002108B6000930B701A2
:10016800B801B50701300318B6070318B707031815
:10017800B80737088316A2008312BC063608831610
:10018800A3008312BC0635088316A4008312BC069C
:1001980053088316A5008312BC0652088316A600CE
:1001A8008312BC0651088316A7008312BC065008A8
:1001B8008316A8008312BC065B088316A900831265
:1001C800BC065A088316AA008312BC063E0883168A
:1001D800AB008312BC063D088316AC008312BC0634
:1001E8000030FA1A01308316AD008312BC06B62718
:1001F8008A11B301B4013E083402031D05293D08E4
:10020800330203183A290330E0003408A100330808
:10021800A0000330A200A3018A238A112108A700A5
:100228002008A6002030A6070318A70A2D30A8002A
:10023800B7248A112D088316A00083122E0883166E
:10024800A10083122F088316A20020088312BC067F
:10025800831621088312BC06831622088312BC0663
:10026800B6278A11B30A0319B40AFF283C08831673
:10027800A0000A30A10002308312E0007B284B085E
:100288008312BD00BE01BE00BD0183164C08831257
:10029800BD070318BE0A0830E0003E08A1003D086B
:1002A800A0000330A200A3018A238A112108A70015
:1002B8002008A6002030A6070318A70A3030A80097
:1002C800B7248A1155308316A0003830A1000330B6
:1002D800A200831230088316A30083123108831604
:1002E800A400831232088316A50008308312A000E8
:1002F800A03057278A118316A6000A30A7007B284A
:100308004B088312BD00BE01BE00BD0183164C0818
:100318008312BD070318BE0A2530E0003E08A1007D
:100328003D08A0001E30A200A3018A238A112108DB
:10033800A7002008A6002030A6070318A70A203027
:10034800A8007B248A1155308316A0003930A100FB
:100358002030A2004B08A3004C08A4008312B90166
:10036800BA01831203133908203E8400831700085A
:10037800AC003908A53E84002C0883138000B90A14
:100388000319BA0A3A08803AFF0080307F02031D39
:10039800CF291E303902031CB529253083120313D7
:1003A800A000A03057278A118316C3000A30C40062
:1003B8007B2883164908D03E031CED2984000A30A7
:1003C80004020318ED2908308A000310040D3F3E8B
:1003D80082007A1D08007A11B62F55304D278A11F0
:1003E80040304D278A1100304D278A1140304D2763
:1003F8008A110A304D2F2A305F02A03003195E029D
:10040800031808005F08A1005E08A0000330A200DE
:10041800A3018A238A112108C8002008C7002030B8
:10042800C7070318C80A0F208A118230C600DD30BA
:10043800C500C50B1D2AC60B1D2A222AE0248A11D5
:100448004808A7004708A6006208A8007B238A116D
:10045800C70A0319C80A0730C6007D30C500C50B96
:10046800332AC60B332A831203134808A700470808
:10047800A6006308A8007B238A11C70A0319C80AC3
:100488000730C6007D30C500C50B482AC60B482A70
:10049800831203134808A7004708A6006408A800A9
:1004A8007B238A110730C6007D30C500C50B5A2A48
:1004B800C60B5A2A83120313DE0A0319DF0A063011
:1004C800A600A7015F08A8007B238A110730C60091
:1004D8007D30C500C50B6E2AC60B6E2A0730831205
:1004E8000313A600A7015E08A8007B238A11073022
:1004F800C6007D30C500C50B7F2AC60B7F2A0800C1
:100508008312031310108E0160308F000C1010142A
:1005180083164B088312D000D101D201D3015208AF
:10052800D3005108D2005008D100D00183164C08DE
:100538008312D00701300318D1070318D207031814
:10054800D3075208D3005108D2005008D100D00177
:1005580083164D088312D00701300318D1070318FA
:10056800D2070318D3075208D3005108D200500805
:10057800D100D00183164E088312D007013003182A
:10058800D1070318D2070318D3075308D700520816
:10059800D6005108D5005008D4005908DB00580887
:1005A800DA005B08DD005A08DC000630FA16DE01C6
:1005B800DF01A600A701A8017B238A110730AA0042
:1005C8007D30A900A90BE62AAA0BE62A0730831278
:1005D8000313A600A701A8017B238A110730AA00EC
:1005E8007D30A900A90BF62AAA0BF62A043083123B
:1005F8000313A600A7015B08A8007B238A11073014
:10060800AA007D30A900A90B072BAA0B072B0530E0
:1006180083120313A600A7015A08A8007B238A1196
:100628000730AA007D30A900A90B182BAA0B182B9C
:1006380083120313A601A70183164B088312A8008F
:100648007B238A110730AA007D30A900A90B2A2B29
:10065800AA0B2A2B83120313A601A60AA701831645
:100668004C088312A8007B238A110730AA007D302A
:10067800A900A90B3D2BAA0B3D2B023083120313B3
:10068800A600A70183164D088312A8007B238A11B0
:100698000730AA007D30A900A90B502BAA0B502BBC
:1006A800033083120313A600A70183164E08831292
:1006B800A8007B238A110730AA007D30A900A90B66
:1006C800632BAA0B632B053083120313E00055300C
:1006D8008316A0003430A1000530A2018312A000C7
:1006E800A03057278316A3000A30A40008003A2731
:1006F8008A11A030F3268A112708F3268A112608C2
:10070800F3268A112808F3268A11452FA401A5018A
:10071800201C942B2208A4070318A50A2308A50760
:100728000310A20DA30D0310A10CA00C2108200496
:10073800031D8C2B2508A1002408A0000800043004
:1007480083120313A600A70163248A11DA00DB01D0
:10075800DB000730DA01AA007D30A900A90BB22B13
:10076800AA0BB22B053083120313A600A70163243A
:100778008A11DA070318DB0A0730AA007D30A900BE
:10078800A90BC42BAA0BC42B831203135B08DD002F
:100798005A08DC005B08D9005A08D800A601A7014E
:1007A80063248A11D000D101D201D3015208D300A9
:1007B8005108D2005008D1000730D001AA007D307E
:1007C800A900A90BE52BAA0BE52B83120313A6019D
:1007D800A60AA70163248A11D00701300318D1079C
:1007E8000318D2070318D3075208D3005108D200C0
:1007F8005008D1000730D001AA007D30A900A90B0C
:10080800032CAA0B032C023083120313A600A701A2
:1008180063248A11D00701300318D1070318D207BF
:100828000318D3075208D3005108D2005008D1004A
:100838000730D001AA007D30A900A90B212CAA0BF2
:10084800212C033083120313A600A70163248A1105
:10085800D00701300318D1070318D2070318D307AC
:100868000730AA007D30A900A90B382CAA0B382C18
:10087800063083120313A600A70163248A11DE0041
:100888000730DF01AA007D30A900A90B492CAA0B6B
:10089800492C831203135E08DF000730DE01A6002F
:1008A800A70163248A11DE070318DF0A0730AA00AC
:1008B8007D30A900A90B5E2CAA0B5E2C08003A27F4
:1008C8008A11A030F3268A112708F3268A112608F0
:1008D800F3268A11F9278A11A130F3268A118B266B
:1008E8008A11A80024278A114527280808003A27D2
:1008F8008A11A030F3268A112708F3268A112608C0
:10090800F3268A11F9278A11A130F3268A11AA0140
:10091800AB01831203132A082807A90084008B2639
:100928008A11831780002B08803AFF0080307F02ED
:10093800031DA02C1D302A020318A42CE8268A11B6
:1009480083120313AA0A0319AB0A2B08803AFF0083
:1009580080307F02031DB22C1E302A02031C8D2C0E
:1009680024278A11452F3A278A11A030F3268A11A5
:100978002708F3268A112608F3268A11F9278A11EF
:10098800A130F3268A11280884008B268A11831344
:100998008000E8268A112808013E84008B268A11E7
:1009A8008000E8268A112808023E84008B268A11D6
:1009B800800024278A11452F3A278A117130F3269F
:1009C8008A118B268A11BA00B60007300310B60CBC
:1009D800FF3E031DEA2C3618FB2C3A08B60003101C
:1009E800B60C0310B60C0310B60C3618FE2C2427D0
:1009F8008A11452FE8268A118B268A11BB00E82622
:100A08008A118B268A11BC00E8268A118B268A1146
:100A1800BD00E8268A118B268A11BE00E8268A11B5
:100A28008B268A11BF0024278A1145278A113B0883
:100A3800C100C201C301C4014308C4004208C30085
:100A48004108C200C1013C08C10701300318C207B0
:100A58000318C3070318C4074308C4004208C300A7
:100A68004108C200C1013D08C10701300318C2078F
:100A78000318C3070318C40704300310C40CC30CBD
:100A8800C20CC10CFF3E031D412D6430A000A10122
:100A9800A201A3014408A7004308A6004208A50034
:100AA8004108A400C6278A112308C4002208C300ED
:100AB8002108C2002008C10014300310C40CC30C64
:100AC800C20CC10CFF3E031D612D0A30A000A1011C
:100AD800A201A3014408A7004308A6004208A500F4
:100AE8004108A400A0268A112008E400F030E40E92
:100AF800E4050A30AD00AE01AF01B0014408B4000E
:100B08004308B3004208B2004108B10078278A11AF
:100B18003008C4002F08C3002E08C2002D08C100E9
:100B2800E4073D080F39C100C201C301C4014308ED
:100B3800C4004208C3004108C200C1013E08C10701
:100B480001300318C2070318C3070318C407430872
:100B5800C4004208C3004108C200C1013F08C107E0
:100B680001300318C2070318C3070318C40703306A
:100B7800A301A201A100E830A0004408A70043088F
:100B8800A6004208A5004108A400C6278A11230828
:100B9800C4002208C3002108C2002008C1000A308E
:100BA8000310C40CC30CC20CC10CFF3E031DD42D92
:100BB800C830A000A101A201A3014408A70043086E
:100BC800A6004208A5004108A400C6278A112308E8
:100BD800C4002208C3002108C2002008C1000A304E
:100BE8000310C40CC30CC20CC10CFF3E031DF42D32
:100BF8005030B600C330B700B801B9013608C10299
:100C08003708031C370FC2023808031C380FC30209
:100C18003908031C390FC4022730A301A201A1001F
:100C28001030A0004408A7004308A6004208A50009
:100C38004108A400A0268A112008C000F030C00E88
:100C4800C0054008E2000A30AD000330AE01AF0134
:100C5800B001A301A201A100E830A0004408A70048
:100C68004308A6004208A5004108A400A0268A114E
:100C78002308B4002208B3002108B2002008B100FC
:100C880078278A112D08C000E2070A30AD006430C9
:100C9800AE01AF01B001A000A101A201A301440867
:100CA800A7004308A6004208A5004108A400A02602
:100CB8008A112308B4002208B3002108B2002008D2
:100CC800B10078278A112D08E300F030E30EE30520
:100CD8000A30AD00AE01AF01B001A000A101A20130
:100CE800A3014408A7004308A6004208A50041083C
:100CF800A400A0268A112308B4002208B300210802
:100D0800B2002008B10078272D08E3070800A301E6
:100D1800A40103100130A30D15278A110030061A0B
:100D28000130A304003015278A110830A40A2402D0
:100D3800031C8E2E23080800A801A901AA01AB01F3
:100D480023082204210420040319DF2EAC01AC0A75
:100D5800A31BB42E0310A00DA10DA20DA30DAB2E45
:100D68000310A80DA90DAA0DAB0D23082702031D1A
:100D7800C72E22082602031DC72E21082502031D9F
:100D8800C72E20082402031CD92E2008A4022108FB
:100D9800031C210FA5022208031C220FA602230808
:100DA800031C230FA70228140310A30CA20CA10CE8
:100DB800A00CAC0BB42E2B08A3002A08A20029080B
:100DC800A1002808A000080000302F278A11013050
:100DD80015278A11003015278A1101302F2FA300FB
:100DE800A5010030A31B01302F278A1101301527D8
:100DF8008A11003015278A1108300310A30DA50A9F
:100E08002502031CF52E01302F278A1101301527E2
:100E18008A110030061A0130A40000301527240872
:100E2800080083120313A2002203031D212F831637
:100E380006178312061B232F1D2F83160613FA2F5E
:100E480001302F278A11013015278A110030152704
:100E58008A1101302F2F83120313A200220B372F80
:100E680083160616392F83160612FA2F0130152716
:100E78008A1101302F278A1100302F278A1100305C
:100E8800152F00302F278A11013015278A110130BC
:100E98002F2FA0000C1E4E2F0000000083120313FA
:100EA800200899000800A300A401A501A50A2008AC
:100EB800FE3EA100FF3003180030A200803A803CBB
:100EC800031D682F210825020318742F83120313AA
:100ED80025082307A100840083130008A4065A2FBD
:100EE800831203132408080030082F042E042D044D
:100EF8000319AD2FB501B50AB01B882F0310AD0D2E
:100F0800AE0DAF0DB00D7F2F30083402031D962FA4
:100F18002F083302031D962F2E083202031D962F29
:100F28002D083102031CA72F2D08B1022E08031C1F
:100F38002E0FB2022F08031C2F0FB3023008031C18
:100F4800300FB4020310B00CAF0CAE0CAD0CB50BE7
:100F5800882F3408B0003308AF003208AE003108DB
:100F6800AD00080083120313A101600821020318D1
:100F780008002108A03E8400831300084D278A1129
:100F8800A10AB92FA801A901AA01AB01201CE02FD1
:100F98002408A807250803110318013E031DA90703
:100FA800260803110318013E031DAA072708031189
:100FB8000318013E031DAB070310A40DA50DA60DD4
:100FC800A70D0310A30CA20CA10CA00C230822044B
:100FD80021042004031DCA2F2B08A3002A08A200FD
:100FE8002908A1002808A00008003A2F1030831211
:100FF800A100A10BFD2F0800FF1B0A2883137F18EF
:1010080083170008840A0319FF0A080008308A00B9
:101018000408840A82070034413454342B3453348E
:10102800543441345234543445344E3431340D340C
:101038000A340034413454342B3441344434563463
:1010480049344E3431340D340A3400344134543484
:101058002B3453344C3445344534503432340D3405
:101068000A340034413454342B3452345334543415
:101078000D340A3400348A113F288A117E288A11D7
:1010880083288A1187288A118B288A118E288A1129
:0E10980092288A1196288A1143298A118429E8
:1018EE00831606160617080064008001840A040693
:1018FE000319003404067C2CA400A5000130A202BA
:10190E000030031CA303A302220A0319230A03199E
:10191E00080025088400200883178000A50A852C5E
:10192E008316861686139B1118159A011930990085
:10193E0018128312981783168C169816831218167F
:10194E00831618138312181308000530FA12831227
:10195E00E00055308316A0003530A1000530A201FD
:10196E008312A000A0308A1157278316A3000A30D5
:10197E00A400080003179E019F0103138501043084
:10198E0083168500831285018601831686018312D4
:10199E0086018701013083168700831287010800B4
:1019AE000C308B170B170B168B1001178112811130
:1019BE00011481140115831281000B118B168E01F7
:1019CE0060308F00101690169014101590150C1094
:1019DE0083160C14831210140800A4002008A6000D
:1019EE002408A5000130A1020030031CA203A202AC
:1019FE00210A0319220A03190800260884008317F6
:101A0E000008A30025088400230883138000A60A7B
:101A1E00A50AF92C073083120313E0005530831604
:101A2E00A0003330A1000230A20083125B0883169F
:101A3E00A30083125A088316A40007308312A00055
:101A4E00A0308A1157278316A5000A30A600080079
:101A5E00831603134B088312D800D901D900D8017D
:101A6E0083164C088312D8070318D90A0530E000F4
:101A7E0055308316A0003230A1000530A20183122A
:101A8E00A000A0308A1157278316A3000A30A400A5
:101A9E0008007B08A300A201A401A40A2308FE3EAD
:101AAE00A000FF3003180030A100803A803C031DD7
:101ABE00622D2008240203186D2D831203132408AF
:101ACE003E3E840083170008A206542D8312031392
:101ADE0023083C3E8400831700082206031D792D3F
:101AEE0003140800031008005C30FA01FB01FC012E
:101AFE00FD018313840067308A157B248A15A0307C
:101B0E008400E6308A157B248A15203083178400E2
:101B1E006F308A157B24B030D000C330D100CF3067
:101B2E00D2006130D300B030D400C330D500CF30F6
:101B3E00D6006130D7000130D800D901DA00DB01C0
:101B4E0083018A15142F553083160313A0003130EC
:101B5E00A1000430A200831257088316A30083123B
:101B6E0056088316A400831255088316A500831207
:101B7E000F089F3EA600FF3003180030A700043068
:101B8E00FF00270DA70CA60CFF0BC82D5408260727
:101B9E008316A60009308312A000A0308A115727A1
:101BAE008316A7000A30A80009308312E00008004F
:101BBE000E3083120313E00055308316A00036302A
:101BCE00A1000930A200831253088316A3008312CA
:101BDE0052088316A400831251088316A50083129F
:101BEE0050088316A60083125B088316A700831283
:101BFE005A088316A80083125F088316A900831261
:101C0E005E088316AA000030FA1A0130AB000E30BF
:101C1E008312A000A0308A1157278316AC000A3019
:101C2E00AD0008008312823003130712A600DD30C8
:101C3E00A500A50B202EA60B202E252E0F307A26C2
:101C4E008A150B30A30066268A150230A700C7300E
:101C5E00A6008830A500A50B322EA60B322EA70BA0
:101C6E00322E640001307A268A150D30A3006626C6
:101C7E008A150230A700C730A6008830A500A50B34
:101C8E00462EA60B462EA70B462E640027307A262C
:101C9E008A150830A30066268A150230A700C730C1
:101CAE00A6008830A500A50B5A2EA60B5A2EA70B00
:101CBE005A2E64007A168312031307160800A40125
:101CCE0023082402031808002208FF0021088400BC
:101CDE008A1500208A158A114D278A15A10A031923
:101CEE00A20AA40A672E83120313A1008030A20059
:101CFE000800831603138C1E8C2E83128C1E8C2EC2
:101D0E00DF268A15E100F9268A150B1A8B1C972EF1
:101D1E00C8308B107A168312E6000530E5000712E4
:101D2E008B1A0B1DB72E3C308B160B1183128100B4
:101D3E007D08031DFD03FD08031DB12E0A30FD00B5
:101D4E00FC01FB01F001F1017B08F2003E30F301D2
:101D5E00E5268A156608031DE6036508031DE503DF
:101D6E0083160C1CD62E83120C1CD62E0C101010A3
:101D7E008E0160308F000A301014D4070130031822
:101D8E00D5070318D6070318D7075D085C04031997
:101D9E00D62E0130DC020030031CDD03DD02790893
:101DAE008A0078088400770E8300FE0E7E0E0900EE
:101DBE00981CE32E181218161A080800F400F500E5
:101DCE000130F2020030031CF303F302720A03190E
:101DDE00730A0319080075088400700883178000C1
:101DEE00F50AE72EF6001D307C0203180B2F7C0837
:101DFE003E3E8400760883178000FC0A7C08FB00B8
:101E0E000A30FA15FD000800FC01F001F1017B0813
:101E1E00F2003E30F301E52608008A15C1248A152A
:101E2E008A1597248A150030A300A2000330A10062
:101E3E00E830A0008A1577248A158A15D7248A15CA
:101E4E0082300716CE00DD30CD00CD0B2C2FCE0B01
:101E5E002C2F312F8A11A3238A158A111E208A1541
:101E6E000730CE007D30CD00CD0B3B2FCE0B3B2F60
:101E7E008A1519268A150230CF004530CE00A930BA
:101E8E00CD00CD0B482FCE0B482FCF0B482F4F2F09
:101E9E0083121E300313A001A101A2003E30A30144
:101EAE008A1583248A15FA1E692F831203135D087F
:101EBE005C04031D692F5B08DD005A08DC008A11E3
:101ECE00FF218A15FA1D9A2F0330FA117B02031C8B
:101EDE009A2F831203174008053E0313CD000030DE
:101EEE0003180130CE007B084D064E04031D9A2FB9
:101EFE0003173E08553A031D9A2F7B083D3E84007A
:101F0E00831700080A3A031D9A2F8A112D208A156D
:101F1E00FC018312A001A1017B08A2003E30A301A7
:101F2E008A1583248A1583120313071CA22FFA1411
:101F3E00E601071687100718AE2F66080319AE2F95
:101F4E00E508031DAE2F0530E500023087060718A1
:101F5E005A2FE608031D5A2F87147A1AB82FFA1C27
:101F6E00FE2F0230FA107A120712CF000430CE0084
:101F7E00BA30CD00CD0BC12FCE0BC12FCF0BC12F41
:101F8E0064007A1CE32F5C307A1083120313A100D5
:101F9E000130A2001330A3008A1566268A1503307D
:101FAE00CF008A30CE005630CD00CD0BDC2FCE0BBD
:101FBE00DC2FCF0BDC2FE32F1B3083120313A1007A
:101FCE008030A2000B30A3008A1566268A150230D7
:101FDE00CF00C730CE008830CD00CD0BF42FCE0B06
:101FEE00F42FCF0BF42F6400831203130716630034
:021FFE005A2F58
:02400E00D4FFDD
:00000001FF
