:040000008A110D282C
:10000800FE00030EF7000408F8000A08F9008A1138
:10001800D9288A116F2A8A11FA228A118A1125236E
:100028008A110030A300A2000330A100E830A0002C
:100038008A1168238A118A11DD228A1182300716F3
:10004800CE00DD30CD00CD0B2728CE0B27282C285D
:100058008A155B238A118A1515208A110730CE006C
:100068007D30CD00CD0B3628CE0B36288A116D2178
:100078008A110230CF004530CE00A930CD00CD0B1B
:100088004328CE0B4328CF0B43284A2883121E301F
:100098000313A001A101A2003E30A3018A113A2353
:1000A8008A117A1E6428831203135D085C04031DF9
:1000B80064285B08DD005A08DC008A15B7218A111C
:1000C8007A1D952803307A117B02031C9528831228
:1000D80003174008053E0313CD0000300318013014
:1000E800CE007B084D064E04031D952803173E08D5
:1000F800553A031D95287B083D3E84008317000868
:100108000A3A031D95288A1524208A11FC018312B6
:10011800A001A1017B08A2003E30A3018A113A2365
:100128008A1183120313071C9D287A14E601071607
:1001380087100718A92866080319A928E508031DC8
:10014800A9280530E5000230870607185528E60873
:10015800031D55288714FA19B3287A1CD72882302A
:100168007A10FA110712CE00DD30CD00CD0BBA2877
:10017800CE0BBA28BF280B3083120313A1001B3003
:100188008A11BA218A110230CF00C730CE008830D8
:10019800CD00CD0BCD28CE0BCD28CF0BCD286400BC
:1001A80083120313071663005528831603138C1E46
:1001B800E52883128C1EE52838218A11E100522196
:1001C8008A110B1A8B1CF028C8308B10FA15831271
:1001D800E6000530E50007128B1A0B1D10293C308C
:1001E8008B160B11831281007D08031DFD03FD088A
:1001F800031D0A290A30FD00FC01FB01F001F10191
:100208007B08F2003E30F3013E218A116608031D87
:10021800E6036508031DE50383160C1C2F298312CA
:100228000C1C2F290C1010108E0160308F000A3022
:100238001014D40701300318D5070318D60703187C
:10024800D7075D085C0403192F290130DC02003050
:10025800031CDD03DD0279088A0078088400770E24
:100268008300FE0E7E0E0900981C3C2918121816F1
:100278001A080800F400F5000130F2020030031CEF
:10028800F303F302720A0319730A031908007508C5
:100298008400700883178000F50A4029F6001D3095
:1002A8007C02031864297C083E3E84007608831784
:1002B8008000FC0A7C08FB000A307A15FD00080063
:1002C800FC01F001F1017B08F2003E30F3013E2110
:1002D80008008312823003130712A500DD30A40042
:1002E800A40B7429A50B742979290B3083120313E5
:1002F800A1000F30BA218A110230A600C730A5002C
:100308008830A400A40B8629A50B8629A60B86296C
:1003180064000D3083120313A1000130BA218A1141
:100328000230A600C730A5008830A400A40B9A2983
:10033800A50B9A29A60B9A29640008308312031387
:10034800A1002730BA218A110230A600C730A500C3
:100358008830A400A40BAE29A50BAE29A60BAE29A4
:100368006400FA158312031307160800A200A301FC
:100378002108230203180800220884008A11052294
:100388008A118A1505278A11A20AA30ABC290E30E8
:1003980083120313E00055308316A0003630A10005
:1003A8000930A200831253088316A300831252084F
:1003B8008316A400831251088316A50083125008DF
:1003C8008316A60083125B088316A70083125A08B7
:1003D8008316A80083125F088316A90083125E089B
:1003E8008316AA0000307A1A0130AB000E3083124F
:1003F800A000A0308A1591278316AC000A30AD0002
:10040800080002308A000408840A82070034413454
:1004180054342B34533454344134523454344534E2
:100428004E3431340D340A340034413454342B34CE
:1004380041344434563449344E3431340D340A345A
:100448000034413454342B3453344C34453445341B
:10045800503432340D340A340034413454342B349B
:100468005234533454340D340A340034553083161E
:100478000313A0003130A1000430A20083125708F2
:100488008316A300831256088316A4008312550806
:100498008316A50083120F089F3EA600FF3003189D
:1004A8000030A7000430FF00270DA70CA60CFF0B97
:1004B800582A540826078316A60009308312A0007C
:1004C800A0308A1591278316A7000A30A8000930A2
:1004D8008312E00008005C30FA01FB01FC01FD0119
:1004E8008313840067308A1160238A11A030840046
:1004F800E6308A1160238A112030831784005C302B
:100508008A116023B030D000C330D100CF30D20080
:100518006130D300B030D400C330D500CF30D6001E
:100528006130D7000130D800D901DA00DB0183013E
:100538008A110F28831603134B088312D800D90198
:10054800D900D80183164C088312D8070318D90A92
:100558000530E00055308316A0003230A100053088
:10056800A2018312A000A0308A1591278316A30048
:100578000A30A4000800073083120313E000553046
:100588008316A0003330A1000230A20083125B085A
:100598008316A30083125A088316A4000730831217
:1005A800A000A0308A1591278316A5000A30A6005E
:1005B80008000C308B170B170B168B1001178112C4
:1005C8008111011481140115831281000B118B16FE
:1005D8008E0160308F00101690169014101590152B
:1005E8000C1083160C1483121014080003179E01B4
:1005F8009F0103138501043083168500831285014A
:1006080086018316860183128601870101308316CD
:10061800870083128701080005307A128312E000F0
:1006280055308316A0003530A1000530A201831291
:10063800A000A0308A1591278316A3000A30A400D1
:1006480008008316861686139B1118159A0119300F
:10065800990018128312981783168C16981683120D
:10066800181683161813831218130800A400A5007F
:100678000130A2020030031CA303A302220A0319BB
:10068800230A03190800250884002008831780001E
:10069800A50A3C2B8A1534288A1539288A153D283D
:1006A8008A1541288A1544288A1548288A154C280D
:1006B8008A15FB288A153C2964008001840A0406EF
:1006C800031900340406612B831606160617080062
:10100C00F2268A157030AB268A15AC30AB268A15C1
:10101C003330AB268A150030AB268A15FD2EF2260E
:10102C008A157030AB268A15E130AB268A1508304C
:10103C00AB268A150030AB268A15FD2E0313BC0196
:10104C00BD01B8278A15031CA9293E30A0007B08D6
:10105C00A100C830A201E3278A1595298A113A22EA
:10106C008A15FA14A5298A119E228A1537288A1105
:10107C00BF228A1537283C228A1537288A1110235B
:10108C008A1537288A11CB218A15372883120E30FE
:10109C00BB01E00055308316A0003730A10083124D
:1010AC00BB065F08BD005E08BC003D08A1003C0803
:1010BC00A0000330A200A30142238A152008B5002A
:1010CC002108B6000930B701B801B5070130031883
:1010DC00B6070318B7070318B80737088316A2001A
:1010EC008312BB0636088316A3008312BB06350891
:1010FC008316A4008312BB0653088316A500831223
:10110C00BB0652088316A6008312BB065108831631
:10111C00A7008312BB0650088316A8008312BB06D7
:10112C005B088316A9008312BB065A088316AA0013
:10113C008312BB063D088316AB008312BB063C082A
:10114C008316AC008312BB0600307A1A013083166A
:10115C00AD008312BB064D278A15B301B4013D08BF
:10116C003402031DBB283C0833020318F02803305B
:10117C00E0003408A1003308A0000330A200A30152
:10118C0042238A152108A7002008A6002030A607B4
:10119C000318A70A2D30A8006F248A152D08831672
:1011AC00A00083122E088316A10083122F08831629
:1011BC00A20020088312BB06831621088312BB06EB
:1011CC00831622088312BB064D278A15B30A03190E
:1011DC00B40AB5283B088316A0000A30A1000230DF
:1011EC008312E0004D278A15A5294B088312BC00F9
:1011FC00BD01BD00BC0183164C088312BC0703184B
:10120C00BD0A0830E0003D08A1003C08A0000330F6
:10121C00A200A30142238A152108A7002008A600DA
:10122C002030A6070318A70A3030A8006F248A15AF
:10123C0055308316A0003830A1000330A200831271
:10124C0030088316A300831231088316A40083127E
:10125C0032088316A50008308312A000A030912715
:10126C008A158316A6000A30A700F8284B088312AB
:10127C00BC00BD01BD00BC0183164C088312BC0729
:10128C000318BD0A2530E0003D08A1003C08A00071
:10129C001E30A200A30142238A152108A7002008B2
:1012AC00A6002030A6070318A70A2030A800332474
:1012BC008A1555308316A0003930A1002030A200C9
:1012CC004B08A3004C08A4008312B901BA01831285
:1012DC0003133908203E840083170008AC0039083A
:1012EC00A53E84002C0883138000B90A0319BA0A9E
:1012FC003A08803AFF0080307F02031D87291E3098
:10130C003902031C6D29253083120313A000A03071
:10131C0091278A158316C3000A30C400F828831657
:10132C004908CF3E031CA529840009300402031888
:10133C00A52903308A000310040D4E3E8200FA1CCE
:10134C000800FA104D2F553005278A154030052717
:10135C008A15003005278A15403005278A150A3072
:10136C00052F2A305F02A03003195E020318080013
:10137C005F08A1005E08A0000330A200A301422375
:10138C008A152108C8002008C7002030C707031899
:10139C00C80A06208A158230C600DD30C500C50B90
:1013AC00D529C60BD529DA2998248A154808A7000F
:1013BC004708A6006208A80033238A15C70A031938
:1013CC00C80A0730C6007D30C500C50BEB29C60B1B
:1013DC00EB29831203134808A7004708A6006308EB
:1013EC00A80033238A15C70A0319C80A0730C60098
:1013FC007D30C500C50B002AC60B002A83120313CF
:10140C004808A7004708A6006408A80033238A15DB
:10141C000730C6007D30C500C50B122AC60B122A38
:10142C0083120313DE0A0319DF0A0630A600A70194
:10143C005F08A80033238A150730C6007D30C5002D
:10144C00C50B262AC60B262A073083120313A600C7
:10145C00A7015E08A80033238A150730C6007D302B
:10146C00C500C50B372AC60B372A08008312031395
:10147C0010108E0160308F000C10101483164B0866
:10148C008312D000D101D201D3015208D3005108EC
:10149C00D2005008D100D00183164C088312D0071B
:1014AC0001300318D1070318D2070318D3075208C9
:1014BC00D3005108D2005008D100D00183164D083A
:1014CC008312D00701300318D1070318D207031871
:1014DC00D3075208D3005108D2005008D100D001D4
:1014EC0083164E088312D00701300318D107031856
:1014FC00D2070318D3075308D7005208D600510857
:10150C00D5005008D4005908DB005808DA005B08F5
:10151C00DD005A08DC0006307A16DE01DF01A60079
:10152C00A701A80133238A150730AA007D30A90032
:10153C00A90B9E2AAA0B9E2A073083120313A6001E
:10154C00A701A80133238A150730AA007D30A90012
:10155C00A90BAE2AAA0BAE2A043083120313A600E1
:10156C00A7015B08A80033238A150730AA007D3039
:10157C00A900A90BBF2AAA0BBF2A0530831203139B
:10158C00A600A7015A08A80033238A150730AA0021
:10159C007D30A900A90BD02AAA0BD02A83120313E1
:1015AC00A601A70183164B088312A80033238A15C2
:1015BC000730AA007D30A900A90BE22AAA0BE22A67
:1015CC0083120313A601A60AA70183164C088312E3
:1015DC00A80033238A150730AA007D30A900A90B77
:1015EC00F52AAA0BF52A023083120313A600A701D1
:1015FC0083164D088312A80033238A150730AA00DE
:10160C007D30A900A90B082BAA0B082B03308312E1
:10161C000313A600A70183164E088312A8003323D8
:10162C008A150730AA007D30A900A90B1B2BAA0B29
:10163C001B2B053083120313E00055308316A000DA
:10164C003430A1000530A2018312A000A0309127F4
:10165C008316A3000A30A4000800F2268A15A030D5
:10166C00AB268A152708AB268A152608AB268A15C1
:10167C002808AB268A15FD2EA401A501201C4C2B95
:10168C002208A4070318A50A2308A5070310A20D16
:10169C00A30D0310A10CA00C21082004031D442B46
:1016AC002508A1002408A0000800043083120313AD
:1016BC00A600A7011B248A15DA00DB01DB0007302A
:1016CC00DA01AA007D30A900A90B6A2BAA0B6A2BA0
:1016DC00053083120313A600A7011B248A15DA0711
:1016EC000318DB0A0730AA007D30A900A90B7C2B5C
:1016FC00AA0B7C2B831203135B08DD005A08DC0059
:10170C005B08D9005A08D800A601A7011B248A152A
:10171C00D000D101D201D3015208D3005108D2001C
:10172C005008D1000730D001AA007D30A900A90BC8
:10173C009D2BAA0B9D2B83120313A601A60AA701AE
:10174C001B248A15D00701300318D1070318D207C0
:10175C000318D3075208D3005108D2005008D10007
:10176C000730D001AA007D30A900A90BBB2BAA0B16
:10177C00BB2B023083120313A600A7011B248A156E
:10178C00D00701300318D1070318D2070318D30769
:10179C005208D3005108D2005008D1000730D001B4
:1017AC00AA007D30A900A90BD92BAA0BD92B033089
:1017BC0083120313A600A7011B248A15D00701303E
:1017CC000318D1070318D2070318D3070730AA0050
:1017DC007D30A900A90BF02BAA0BF02B063083123D
:1017EC000313A600A7011B248A15DE000730DF01B6
:1017FC00AA007D30A900A90B012CAA0B012C831285
:10180C0003135E08DF000730DE01A600A7011B24CE
:10181C008A15DE070318DF0A0730AA007D30A900FD
:10182C00A90B162CAA0B162C0800F2268A15A03030
:10183C00AB268A152708AB268A152608AB268A15EF
:10184C0090278A15A130AB268A1543268A15A80045
:10185C00DC268A15FD2628080800F2268A15A030F9
:10186C00AB268A152708AB268A152608AB268A15BF
:10187C0090278A15A130AB268A15AA01AB018312D9
:10188C0003132A082807A900840043268A15831706
:10189C0080002B08803AFF0080307F02031D582CFB
:1018AC001D302A0203185C2CA0268A158312031300
:1018BC00AA0A0319AB0A2B08803AFF0080307F027A
:1018CC00031D6A2C1E302A02031C452CDC268A15AB
:1018DC00FD2EF2268A15A030AB268A152708AB26DA
:1018EC008A152608AB268A1590278A15A130AB26B7
:1018FC008A152808840043268A1583138000A026A5
:10190C008A152808013E840043268A158000A026EB
:10191C008A152808023E840043268A158000DC269E
:10192C008A15FD2EF2268A157130AB268A154326B0
:10193C008A15BA00B60007300310B60CFF3E031D23
:10194C00A22C3618B32C3A08B6000310B60C0310B0
:10195C00B60C0310B60C3618B62CDC268A15FD2EE8
:10196C00A0268A1543268A15BB00A0268A15432675
:10197C008A15BC00A0268A1543268A15BD00A02610
:10198C008A1543268A15BE00A0268A1543268A1579
:10199C00BF00DC268A15FD268A153B08C100C20152
:1019AC00C301C4014308C4004208C3004108C2007B
:1019BC00C1013C08C10701300318C2070318C30753
:1019CC000318C4074308C4004208C3004108C200FE
:1019DC00C1013D08C10701300318C2070318C30732
:1019EC000318C40704300310C40CC30CC20CC10C84
:1019FC00FF3E031DF92C6430A000A101A201A3013C
:101A0C004408A7004308A6004208A5004108A4000A
:101A1C005D278A152308C4002208C3002108C200D0
:101A2C002008C10014300310C40CC30CC20CC10C30
:101A3C00FF3E031D192D0A30A000A101A201A30134
:101A4C004408A7004308A6004208A5004108A400CA
:101A5C0058268A152008E400F030E40EE4050A301C
:101A6C00AD00AE01AF01B0014408B4004308B300AF
:101A7C004208B2004108B1000F278A153008C40093
:101A8C002F08C3002E08C2002D08C100E4073D0832
:101A9C000F39C100C201C301C4014308C40042088C
:101AAC00C3004108C200C1013E08C1070130031840
:101ABC00C2070318C3070318C4074308C40042082D
:101ACC00C3004108C200C1013F08C107013003181F
:101ADC00C2070318C3070318C4070330A301A201EC
:101AEC00A100E830A0004408A7004308A600420863
:101AFC00A5004108A4005D278A152308C40022080C
:101B0C00C3002108C2002008C1000A300310C40C15
:101B1C00C30CC20CC10CFF3E031D8C2DC830A000A1
:101B2C00A101A201A3014408A7004308A600420892
:101B3C00A5004108A4005D278A152308C4002208CB
:101B4C00C3002108C2002008C1000A300310C40CD5
:101B5C00C30CC20CC10CFF3E031DAC2D5030B600A3
:101B6C00C330B700B801B9013608C1023708031CED
:101B7C00370FC2023808031C380FC3023908031C84
:101B8C00390FC4022730A301A201A1001030A0001C
:101B9C004408A7004308A6004208A5004108A40079
:101BAC0058268A152008C000F030C00EC005400829
:101BBC00E2000A30AD000330AE01AF01B001A30169
:101BCC00A201A100E830A0004408A7004308A60029
:101BDC004208A5004108A40058268A152308B40021
:101BEC002208B3002108B2002008B1000F278A1583
:101BFC002D08C000E2070A30AD006430AE01AF0121
:101C0C00B001A000A101A201A3014408A700430850
:101C1C00A6004208A5004108A40058268A152308EE
:101C2C00B4002208B3002108B2002008B1000F272D
:101C3C008A152D08E300F030E30EE3050A30AD0001
:101C4C00AE01AF01B001A000A101A201A3014408A3
:101C5C00A7004308A6004208A5004108A400582686
:101C6C008A152308B4002208B3002108B20020080A
:101C7C00B1000F272D08E3070800A301A4010310EE
:101C8C000130A30DCD268A150030061A0130A304AD
:101C9C000030CD268A150830A40A2402031C462ED7
:101CAC0023080800A801A901AA01AB0123082204FA
:101CBC00210420040319972EAC01AC0AA31B6C2E33
:101CCC000310A00DA10DA20DA30D632E0310A80DE2
:101CDC00A90DAA0DAB0D23082702031D7F2E220888
:101CEC002602031D7F2E21082502031D7F2E2008AE
:101CFC002402031C912E2008A4022108031C210F8E
:101D0C00A5022208031C220FA6022308031C230F82
:101D1C00A70228140310A30CA20CA10CA00CAC0B52
:101D2C006C2E2B08A3002A08A2002908A100280861
:101D3C00A00008000030E7268A150130CD268A1550
:101D4C000030CD268A150130E72EA300A501003006
:101D5C00A31B0130E7268A150130CD268A150030E9
:101D6C00CD268A1508300310A30DA50A2502031CE5
:101D7C00AD2E0130E7268A150130CD268A150030AC
:101D8C00061A0130A4000030CD2624080800831266
:101D9C000313A2002203031DD92E831606178312E8
:101DAC00061BDB2ED52E83160613B22F0130E72629
:101DBC008A150130CD268A150030CD268A150130C2
:101DCC00E72E83120313A200220BEF2E83160616A6
:101DDC00F12E83160612B22F0130CD268A15013052
:101DEC00E7268A150030E7268A150030CD2E003004
:101DFC00E7268A150130CD268A150130E72EA00082
:101E0C000C1E062F000000008312031320089900FB
:101E1C00080030082F042E042D040319442FB5019B
:101E2C00B50AB01B1F2F0310AD0DAE0DAF0DB00DCD
:101E3C00162F30083402031D2D2F2F083302031DDB
:101E4C002D2F2E083202031D2D2F2D083102031CBD
:101E5C003E2F2D08B1022E08031C2E0FB2022F08A4
:101E6C00031C2F0FB3023008031C300FB4020310F5
:101E7C00B00CAF0CAE0CAD0CB50B1F2F3408B00072
:101E8C003308AF003208AE003108AD0008008312F1
:101E9C000313A10160082102031808002108A03EC9
:101EAC0084008313000805278A15A10A502FA80166
:101EBC00A901AA01AB01201C772F2408A80725082B
:101ECC0003110318013E031DA9072608031103186B
:101EDC00013E031DAA07270803110318013E031D29
:101EEC00AB070310A40DA50DA60DA70D0310A30C95
:101EFC00A20CA10CA00C2308220421042004031D15
:101F0C00612F2B08A3002A08A2002908A100280889
:101F1C00A0000800F22EA300A401A501A50A200828
:101F2C00FE3EA100FF3003180030A200803A803C36
:101F3C00031DA22F210825020318AE2F83120313B1
:101F4C0025082307A100840083130008A406942FFE
:101F5C00831203132408080010308312A100A10B74
:101F6C00B52F08007B08A300A201A401A40A230832
:101F7C00FE3EA000FF3003180030A100803A803CE8
:101F8C00031DCA2F200824020318D52F8312031314
:101F9C0024083E3E840083170008A206BC2F83123F
:101FAC00031323083C3E8400831700082206031DFC
:101FBC00E12F0314080003100800A4002008A60059
:101FCC002408A5000130A1020030031CA203A202C8
:101FDC00210A0319220A0319080026088400831712
:101FEC000008A30025088400230883138000A60A98
:041FFC00A50AE82F1B
:02400E00D4FFDD
:00000001FF
